:100000000C942A000C9434000C9434000C943400AA
:100010000C9434000C9434000C9434000C94340090
:100020000C9434000C9434000C9434000C94340080
:100030000C9434000C9434000C9434000C94340070
:100040000C9434000C9434000C9434000C94340060
:100050000C94340011241FBECFE5D8E0DEBFCDBF25
:100060000E9436000C944E000C9400008FEF87BB6A
:1000700018BA1ABA8BBB80E287B987E886B9369A74
:100080003699FECF85B18D3718F0C19AC098F7CF59
:1000900085B18D37A0F7C09AC198F1CFF894FFCF02
:00000001FF
